:100000000C9462000C948A000C948A000C94C10534
:100010000C94B7050C946B050C948A000C948A0020
:100020000C948A000C948A000C948A000C94F605B7
:100030000C948A000C948A000C948A000C948A0018
:100040000C94C9040C948A000C9439050C94130583
:100050000C948A000C948A000C948A000C948A00F8
:100060000C948A000C948A000000000024002700F1
:100070002A0000000000250028002B0000000000DE
:1000800023002600290004040404040404040202DA
:100090000202020203030303030301020408102007
:1000A0004080010204081020010204081020000012
:1000B0000008000201000003040700000000000027
:1000C00000005A0611241FBECFEFD8E0DEBFCDBF1F
:1000D00022E0A0E9B1E001C01D92AE33B207E1F722
:1000E00011E0A0E0B1E0E0EDF7E102C005900D9273
:1000F000A039B107D9F710E0C2E6D0E004C02197DB
:10010000FE010E94C80AC136D107C9F70E948C06B9
:100110000C94E60B0C940000833081F028F48130BD
:1001200099F08230A9F008958730A9F08830C9F09D
:100130008430B1F4809180008F7D03C08091800075
:100140008F7780938000089584B58F7784BD08955C
:1001500084B58F7DFBCF8091B0008F778093B00006
:1001600008958091B0008F7DF9CFCF93DF93282F32
:1001700030E0F901E255FF4F8491F901E656FF4F57
:10018000D491F901EA57FF4FC491CC23A1F081111A
:100190000E948C00EC2FF0E0EE0FFF1FE458FF4FA1
:1001A000A591B491EC91ED2381E090E009F480E019
:1001B000DF91CF91089580E090E0FACF1F93CF9325
:1001C000DF93282F30E0F901E255FF4F8491F901C8
:1001D000E656FF4FD491F901EA57FF4FC491CC2363
:1001E000A9F0162F81110E948C00EC2FF0E0EE0F89
:1001F000FF1FEE58FF4FA591B4918FB7F894EC9183
:10020000111108C0D095DE23DC938FBFDF91CF9111
:100210001F910895DE2BF8CFCF93DF9390E0FC0180
:10022000E656FF4F24918A579F4FFC018491882303
:10023000D1F090E0880F991FFC01E859FF4FA5917C
:10024000B491FC01EE58FF4FC591D49161110EC0DD
:100250009FB7F8948C91E22FE0958E238C932881A0
:10026000E223E8839FBFDF91CF9108958FB7F89481
:10027000EC91E22BEC938FBFF6CF3FB7F8948091CF
:10028000990190919A01A0919B01B0919C0126B592
:10029000A89B05C02F3F19F00196A11DB11D3FBFBE
:1002A000BA2FA92F982F8827BC01CD01620F711D8D
:1002B000811D911D42E0660F771F881F991F4A9587
:1002C000D1F70895CF93DF93C82FD0E0FE01EE5F02
:1002D000FE4F80810E94B5000097E1F00197B9F4CC
:1002E000FE01EE0FFF1FEE0FFF1FEA5EFE4F1082B2
:1002F0001182128213820E943D01CC0FDD1FCC0FB0
:10030000DD1FC65FDE4F688379838A839B83DF911D
:10031000CF9108950E943D01FE01EE0FFF1FEE0FE9
:10032000FF1FEA5EFE4F6083718382839383808127
:100330009181A281B381FE01EE0FFF1FEE0FFF1F1F
:10034000E65FFE4F4081518162817381841B950B72
:10035000A60BB70BCC0FDD1FCC0FDD1FCE5DDE4F24
:1003600088839983AA83BB83D2CF8F929F92AF92C7
:10037000BF92CF92DF92EF92FF924B015C010E94FD
:100380003D016B017C010E943D016C197D098E09C4
:100390009F09683E734081059105A8F321E0821A08
:1003A0009108A108B10888EEC80E83E0D81EE11CB0
:1003B000F11C81149104A104B10429F7FF90EF907E
:1003C000DF90CF90BF90AF909F908F900895AF92A5
:1003D000BF92CF92DF92EF92FF920F931F93CF9332
:1003E000DF936C017B018B01040F151FEB015E0194
:1003F000AE18BF08C017D10759F06991D601ED9129
:10040000FC910190F081E02DC6010995892B79F7C7
:10041000C501DF91CF911F910F91FF90EF90DF9079
:10042000CF90BF90AF900895FC01538D448D252F40
:1004300030E0842F90E0821B930B541710F0CF967E
:10044000089501970895FC01918D828D981761F0B0
:10045000A28DAE0FBF2FB11D5D968C91928D9F5FC7
:100460009F73928F90E008958FEF9FEF0895FC01A6
:10047000918D828D981731F0828DE80FF11D858D59
:1004800090E008958FEF9FEF0895FC01918D228DEC
:10049000892F90E0805C9F4F821B91098F73992771
:1004A00008958DE991E00E94450221E0892B09F42D
:1004B00020E0822F089580E090E0892B29F00E94AF
:1004C000510281110C9400000895FC01A48DA80F25
:1004D000B92FB11DA35ABF4F2C91848D90E0019686
:1004E0008F739927848FA689B7892C93A089B189A6
:1004F0008C91837080648C93938D848D981306C047
:100500000288F389E02D80818F7D80830895EF92AA
:10051000FF920F931F93CF93DF93EC0181E0888FBD
:100520009B8D8C8D98131AC0E889F989808185FF8D
:1005300015C09FB7F894EE89FF896083E889F9892F
:1005400080818370806480839FBF81E090E0DF9131
:10055000CF911F910F91FF90EF900895F62E0B8D84
:1005600010E00F5F1F4F0F731127E02E8C8D8E113F
:100570000CC00FB607FCFACFE889F989808185FFA6
:10058000F5CFCE010E946502F1CFEB8DEC0FFD2F70
:10059000F11DE35AFF4FF0829FB7F8940B8FEA8961
:1005A000FB8980818062CFCFCF93DF93EC01888D70
:1005B0008823B9F0AA89BB89E889F9898C9185FDDE
:1005C00003C0808186FD0DC00FB607FCF7CF8C916C
:1005D00085FFF2CF808185FFEDCFCE010E946502BD
:1005E000E9CFDF91CF9108958EBD00000DB407FED5
:1005F000FDCF8EB50895CF92DF92EF92FF920F93C9
:100600001F93CF93DF93C82F7B01042F60E080916D
:100610003A020E94DE008C2F0E94F4028BE390E0ED
:100620000197F1F7E70110E08BE3C82ED12CCE0142
:100630008E199F09801791073CF489910E94F4025A
:10064000C6010197F1F7F3CF61E080913A020E9471
:10065000DE008BE193E00197F1F7DF91CF911F91DD
:100660000F91FF90EF90DF90CF900895EF92FF925F
:100670001F93CF93DF93C82F8AE3E82E82E0F82EF2
:1006800060E0F70180810E94DE008C2F0E94F4025E
:10069000CBE3D0E0CE010197F1F78AEA0E94F402A1
:1006A000CE010197F1F785E50E94F402CE01019792
:1006B000F1F780E00E94F402182FCE010197F1F7C4
:1006C00080E00E94F4022197F1F7212F30E0322FD1
:1006D0002227E901C80FD11D61E0F70180810E9446
:1006E000DE008BE193E00197F1F7CE01DF91CF912E
:1006F0001F91FF90EF900895FC0101900020E9F711
:100700003197AF01481B590BBC018DE991E00C9466
:10071000E7018F929F92AF92BF920F931F93CF9357
:10072000DF93CDB7DEB7A1970FB6F894DEBF0FBE4B
:10073000CDBF19A2423008F44AE08E010F5D1F4F71
:10074000842E912CB12CA12CA50194010E94A60A03
:10075000E62FB901CA01EA30F4F4E05DD801EE9366
:100760008D01232B242B252B79F790E080E0109727
:1007700019F0CD010E947C03A1960FB6F894DEBF5C
:100780000FBECDBFDF91CF911F910F91BF90AF9062
:100790009F908F900895E95CE1CF0C947C03CF92F9
:1007A000DF92EF92FF92CF93DF936C01990FEE08E7
:1007B000FF08F7FE19C06DE28DE991E00E94870203
:1007C000EC0166277727CB016C197D098E099F09FB
:1007D0004AE00E9489038C0F9D1FDF91CF91FF900B
:1007E000EF90DF90CF9008954AE0C701B601DF9106
:1007F000CF91FF90EF90DF90CF900C9489034F92B0
:100800005F926F927F928F929F92AF92BF92CF92A0
:10081000DF92EF92FF926B017C01AC019B010E9481
:10082000E10B8823C1F081E491E00E947C037C010C
:100830008DE491E00E947C038E0D9F1DFF90EF9050
:10084000DF90CF90BF90AF909F908F907F906F90F0
:100850005F904F90089546015701E894B7F82FEF45
:100860003FEF4FE75FE7C501B4010E94E10B811143
:100870000DC02FEF3FEF4FE75FE7C501B4010E94C6
:10088000820918161CF485E491E0CFCF2FEF3FEFDB
:100890004FE75FE4C701B6010E94DC0B18161CF499
:1008A00089E491E0C2CF2FEF3FEF4FE75FECC70144
:1008B000B6010E94820987FDF3CF20E030E0A90154
:1008C000C701B6010E948209B12CA12C87FF0AC082
:1008D0006DE28DE991E00E9487025C01F7FAF094E5
:1008E000F7F8F0942AE037ED43EA5BE3C701B6017D
:1008F0000E94CF0A2B013C010E94AD0B6B017C01D1
:100900000E9487099B01AC01C301B2010E94CE0A7B
:100910002B013C014AE0C701B6010E9489037C011A
:10092000EA0CFB1C6EE28DE991E00E948702E80E62
:10093000F91E20E030E040E251E4C301B2010E9420
:10094000E8092B013C010E94AD0B4B01B12CA12CFD
:100950004AE0C501B4010E948903E80EF91EC501F1
:10096000B4010E9487099B01AC01C301B2010E943E
:10097000CE0A20E030E040E251E40E94E8090E9403
:10098000AD0B90E080E04AE00E948903E80EF91E7A
:100990004FCF1F920F920FB60F9211242F933F93B8
:1009A0008F939F93AF93BF93809195019091960100
:1009B000A0919701B09198013091940123E0230F09
:1009C0002D3758F50196A11DB11D209394018093F8
:1009D000950190939601A0939701B093980180910F
:1009E000990190919A01A0919B01B0919C0101966F
:1009F000A11DB11D8093990190939A01A0939B0131
:100A0000B0939C01BF91AF919F918F913F912F9196
:100A10000F900FBE0F901F90189526E8230F029697
:100A2000A11DB11DD2CF1F920F920FB60F921124AC
:100A30002F933F934F935F936F937F938F939F93E6
:100A4000AF93BF93EF93FF938DE991E00E9465020E
:100A5000FF91EF91BF91AF919F918F917F916F9196
:100A60005F914F913F912F910F900FBE0F901F906C
:100A700018951F920F920FB60F9211242F938F93F8
:100A80009F93EF93FF93E091AD01F091AE018081D0
:100A9000E091B301F091B40182FD1BC0908180917F
:100AA000B6018F5F8F732091B701821741F0E091FB
:100AB000B601F0E0E356FE4F958F8093B601FF91AB
:100AC000EF919F918F912F910F900FBE0F901F90DC
:100AD00018958081F4CF1F920F920FB60F921124B8
:100AE0002F933F934F935F936F937F938F939F9336
:100AF000AF93BF93CF93DF93EF93FF9387E00E9471
:100B0000B500D1E0892B09F4D0E085E00E94B50062
:100B1000C1E0892B09F4C0E0809192018D1741F06A
:100B2000D093920180912E01811102C00E94620136
:100B3000809191018C1741F0C093910180912E0119
:100B4000823011F40E946201FF91EF91DF91CF9109
:100B5000BF91AF919F918F917F916F915F914F91D5
:100B60003F912F910F900FBE0F901F9018951F92DD
:100B70000F920FB60F9211240F900FBE0F901F907F
:100B800018951F920F920FB60F9211242F933F9337
:100B90004F935F936F937F938F939F93AF93BF9385
:100BA000EF93FF9389E00E94B50021E0892B09F4BF
:100BB00020E080919001821741F020939001809174
:100BC0002E01813011F40E946201FF91EF91BF91DB
:100BD000AF919F918F917F916F915F914F913F91D5
:100BE0002F910F900FBE0F901F9018951F920F928C
:100BF0000FB60F9211242F933F934F935F936F93F0
:100C00007F938F939F93AF93BF93EF93FF938091C5
:100C100008019091090101979093090180930801BF
:100C2000892BB9F488EE93E0909309018093080131
:100C300081E090E0909301018093000180912E016A
:100C40008F5F80932E0180912E01833010F01092DF
:100C50002E018091000190910101009789F0E091AF
:100C60002E01F0E0EE5FFE4F0197D9F461E0838141
:100C70000E94DE0082E090E09093010180930001E9
:100C8000FF91EF91BF91AF919F918F917F916F9164
:100C90005F914F913F912F910F900FBE0F901F903A
:100CA000189560E083810E94DE001092010110928D
:100CB0000001E6CFEDE9F1E01382128288EE93E0C5
:100CC000A0E0B0E084839583A683B78383E391E0BB
:100CD0009183808385EC90E09587848784EC90E015
:100CE0009787868780EC90E0918B808B81EC90E0F9
:100CF000938B828B82EC90E0958B848B86EC90E0DA
:100D0000978B868B118E128E138E148EEAE3F2E08F
:100D10001182128213820895CF93DF93CDB7DEB78D
:100D20002A970FB6F894DEBF0FBECDBF789484B576
:100D3000826084BD84B5816084BD85B5826085BDD7
:100D400085B5816085BD80916E00816080936E0065
:100D50001092810080918100826080938100809157
:100D60008100816080938100809180008160809308
:100D700080008091B10084608093B1008091B000C8
:100D800081608093B00080917A00846080937A00C3
:100D900080917A00826080937A0080917A008160ED
:100DA00080937A0080917A00806880937A00109214
:100DB000C100E091AD01F091AE0192E09083E0912D
:100DC000A901F091AA011082E091AB01F091AC0170
:100DD0008FEC80831092B501E091B101F091B201E6
:100DE00086E08083E091AF01F091B0018081806165
:100DF0008083E091AF01F091B001808188608083B1
:100E0000E091AF01F091B001808180688083E09132
:100E1000AF01F091B00180818F7D808390933A0281
:100E200061E082E00E940C011FB7F8948091930169
:100E3000811127C0E0E9F0E08491E4EAF0E09491C8
:100E4000E82FF0E0EE0FFF1FE859FF4FA591B49196
:100E5000EC91E92321F461E08AE00E94DE0061E088
:100E60008AE00E940C018CB580618CBD8CB58064D9
:100E70008CBD61E08DE00E940C0161E08BE00E947E
:100E80000C01809193018F5F809393011FBF8CB5FC
:100E90008F7D8CBD8CB5837F84608CBD8CB58C7F41
:100EA0008CBD8DB581608DBD61E080913A020E945C
:100EB000DE008BE193E00197F1F719821A821B8221
:100EC0008AEA8F8385E5888742E0BE01695F7F4FAC
:100ED0008EEF0E94FB0260E080913A020E94DE00E9
:100EE0008BE390E00197F1F78E010F5F1F4F7E01BA
:100EF00084E0E80EF11C702E612E4BE3C42ED12C41
:100F000080E00E94F402F80181938F01C6010197ED
:100F1000F1F7EE15FF05A1F7898180933B028A81E5
:100F200080933C028B8180933D0261E080913A0284
:100F30000E94DE000AEA098315E51A8342E0672D64
:100F4000762D87EF0E94FB0262E070E080E090E087
:100F50000E94B50109831A831B8243E0672D762D19
:100F600088EF0E94FB0261E070E080E090E00E9468
:100F7000B50109831A831B828AE08C8381E08D830B
:100F800084EF8E8346E0672D762D0E94FB0269E197
:100F900070E080E090E00E94B50102E011E0812C59
:100FA000912C54018394780161E0F80183810E94BF
:100FB0000C0160E0F80183810E94DE000F5F1F4F8B
:100FC00060E0F70180810E940C01F8013197808177
:100FD000EDE6F0E0883050F0EBE6F0E08E3030F0F7
:100FE000ECE6F0E0863110F0F0E0E0E09081282FB0
:100FF00030E0883008F0BBC0B501A401082E04C061
:10100000440F551F661F771F0A94D2F7492B408360
:101010009BB3883008F4BCC021E08E3008F420E097
:10102000882D01C0880F2A95EAF7982B9BBB9091D9
:101030006800892B80936800F1E005301F0709F0F4
:10104000B2CFF89410928000109281001092850027
:101050001092840084E690E0909389008093880049
:1010600080918100886080938100809181008260FE
:101070008093810080916F00826080936F007894EC
:1010800086ED0E9436038436910508F083C080E027
:10109000C82E80E0D82E1AEA05E594E6F92E22E360
:1010A000E22E6091220170912301809124019091A0
:1010B00025010E9489092DE13AE14BE652E40E94A4
:1010C0003B0B20E030E040EA51E40E94DC0B87FD5E
:1010D00010C16091260170912701809128019091A3
:1010E00029010E9489092DE13AE14BE652E40E9470
:1010F0003B0B20E030E040EA51E40E94DC0B87FD2E
:10110000F8C060912A0170912B0180912C0190917F
:101110002D010E9489092DE13AE14BE652E40E943B
:101120003B0B20E030E040EA51E40E94DC0B87FDFD
:10113000E0C019830A831B82EC821D82EE8246E0A6
:10114000672D762D86EF0E94FB0262E070E080E062
:1011500090E00E94B501C114D10409F4A2CF0E940D
:101160005102882309F49DCF0E9400009ACF8E304F
:1011700060F428503109B501A40104C0440F551F83
:10118000661F771F2A95D2F741CF2E503109F3CF32
:1011900084E04BCF80E591E00E94CD036091220175
:1011A0007091230180912401909125010E94890969
:1011B0002DE13AE14BE652E40E943B0B0E94FF0313
:1011C0008DE591E00E94CD03609126017091270189
:1011D00080912801909129010E9489092DE13AE12D
:1011E0004BE652E40E943B0B0E94FF038CE691E029
:1011F0000E94CD0360912A0170912B0180912C01F6
:1012000090912D010E9489092DE13AE14BE652E4CB
:101210000E943B0B0E94FF038AE791E00E947C033F
:101220008DE491E00E947C038FED0E9436034C0117
:101230008EED0E9436035C018DED0E9436036C0139
:101240008CED0E9436037C018BED0E9436038C01ED
:101250008AED0E9436039A87898789ED0E943603BA
:101260002C0188ED0E9436031C01C4010E94CF03AB
:101270008AE691E00E94CD03C5010E94CF038AE671
:1012800091E00E94CD03C6010E94CF038AE691E05F
:101290000E94CD03C7010E94CF038AE691E00E941D
:1012A000CD03C8010E94CF038AE691E00E94CD03DE
:1012B00089859A850E94CF038AE691E00E94CD033A
:1012C000C2010E94CF038AE691E00E94CD03C101D2
:1012D0000E94CF038AE691E00E94CD038DE491E065
:1012E0000E947C0368EE73E080E090E00E94B5010C
:1012F000C7CE19830A83FB82FC8244E0672D762DDA
:1013000085EF21CF0E94C40908F481E00895E89494
:1013100009C097FB3EF490958095709561957F4F3D
:101320008F4F9F4F9923A9F0F92F96E9BB279395EB
:10133000F695879577956795B795F111F8CFFAF4FB
:10134000BB0F11F460FF1BC06F5F7F4F8F4F9F4F2C
:1013500016C0882311F096E911C0772321F09EE88A
:10136000872F762F05C0662371F096E8862F70E0F0
:1013700060E02AF09A95660F771F881FDAF7880FCA
:101380009695879597F90895990F0008550FAA0B20
:10139000E0E8FEEF16161706E807F907C0F0121688
:1013A0001306E407F50798F0621B730B840B950B8B
:1013B00039F40A2661F0232B242B252B21F40895E0
:1013C0000A2609F4A140A6958FEF811D811D08957D
:1013D0000E94FB090C946C0A0E945E0A38F00E947D
:1013E000650A20F0952311F00C94550A0C945B0AC1
:1013F00011240C94A00A0E947D0A70F3959FC1F3FA
:10140000950F50E0551F629FF001729FBB27F00DB2
:10141000B11D639FAA27F00DB11DAA1F649F662707
:10142000B00DA11D661F829F2227B00DA11D621F56
:10143000739FB00DA11D621F839FA00D611D221F10
:10144000749F3327A00D611D231F849F600D211DF4
:10145000822F762F6A2F11249F5750409AF0F1F077
:1014600088234AF0EE0FFF1FBB1F661F771F881FE0
:1014700091505040A9F79E3F510580F00C94550AB9
:101480000C94A00A5F3FE4F3983ED4F386957795D9
:101490006795B795F795E7959F5FC1F7FE2B880F86
:1014A000911D9695879597F9089597F99F6780E81C
:1014B00070E060E008959FEF80EC089500240A94A6
:1014C0001616170618060906089500240A9412161F
:1014D0001306140605060895092E0394000C11F452
:1014E000882352F0BB0F40F4BF2B11F460FF04C0FF
:1014F0006F5F7F4F8F4F9F4F089557FD9058440F58
:10150000551F59F05F3F71F04795880F97FB991F62
:1015100061F09F3F79F0879508951216130614061F
:10152000551FF2CF4695F1DF08C0161617061806AC
:10153000991FF1CF86957105610508940895E89487
:10154000BB2766277727CB0197F90895A1E21A2ECA
:10155000AA1BBB1BFD010DC0AA1FBB1FEE1FFF1F57
:10156000A217B307E407F50720F0A21BB30BE40BA7
:10157000F50B661F771F881F991F1A9469F76095EE
:101580007095809590959B01AC01BD01CF010895A8
:10159000EE0FFF1F0590F491E02D09945058BB27E2
:1015A000AA270E94E60A0C946C0A0E945E0A38F090
:1015B0000E94650A20F039F49F3F19F426F40C9438
:1015C0005B0A0EF4E095E7FB0C94550AE92F0E94A4
:1015D0007D0A58F3BA17620773078407950720F04E
:1015E00079F4A6F50C949F0A0EF4E0950B2EBA2F11
:1015F000A02D0B01B90190010C01CA01A001112419
:10160000FF27591B99F0593F50F4503E68F11A16C4
:10161000F040A22F232F342F4427585FF3CF469555
:1016200037952795A795F0405395C9F77EF41F1677
:10163000BA0B620B730B840BBAF09150A1F0FF0F41
:10164000BB1F661F771F881FC2F70EC0BA0F621F2D
:10165000731F841F48F4879577956795B795F7951D
:101660009E3F08F0B0CF9395880F08F09927EE0FB2
:101670009795879508950E944F0B0C946C0A0E94D1
:10168000650A58F00E945E0A40F029F45F3F29F095
:101690000C94550A51110C94A00A0C945B0A0E94F8
:1016A0007D0A68F39923B1F3552391F3951B550BEC
:1016B000BB27AA2762177307840738F09F5F5F4F25
:1016C000220F331F441FAA1FA9F335D00E2E3AF064
:1016D000E0E832D091505040E695001CCAF72BD07C
:1016E000FE2F29D0660F771F881FBB1F26173707CD
:1016F0004807AB07B0E809F0BB0B802DBF01FF27FF
:1017000093585F4F3AF09E3F510578F00C94550A7C
:101710000C94A00A5F3FE4F3983ED4F38695779546
:101720006795B795F7959F5FC9F7880F911D9695B7
:10173000879597F90895E1E0660F771F881FBB1F13
:10174000621773078407BA0720F0621B730B840BC0
:10175000BA0BEE1F88F7E09508950E94850A88F07D
:101760009F5798F0B92F9927B751B0F0E1F0660F65
:10177000771F881F991F1AF0BA95C9F714C0B130A6
:1017800091F00E949F0AB1E008950C949F0A672F80
:10179000782F8827B85F39F0B93FCCF386957795D5
:1017A0006795B395D9F73EF49095809570956195BE
:1017B0007F4F8F4F9F4F08950E94C40908F48FEF09
:1017C00008950E94C409880B990B0895F894FFCFDF
:1017D000010007090506080AE803000000000000F0
:1017E00000000000000000000000000000000000F9
:1017F00000000000000000000000000000000000E9
:101800000000008702E7011402D4024502230237D8
:10181000026E616E00696E66006F7666000D0A00EA
:101820004C45465420534F4E41523A20004D4944B6
:10183000444C4520534F4E41523A200052494748AC
:101840005420534F4E41523A20004C494E452053AC
:10185000454E534F522056414C5545533A200000B7
:00000001FF
